:020000041000EA
:4000000000400208230100100D00000085010010000000000000000000000000000000000000000000000000000000008101001000000000000000008101001081010010E9
:400040008101001081010010810100108101001081010010810100108101001081010010810100108101001081010010810100108101001081010010810100108101001060
:400080008101001081010010810100108101001081010010810100108101001081010010810100108101001081010010810100108101001081010010810100108101001020
:4000C00010B5064C2378002B07D1054B002B02D0044800E000BF0123237010BD3C060008000000009C220010084B10B5002B03D00749084800E000BF07480368002B00D16C
:4001000010BD064B002BFBD09847F9E700000000400600089C220010E8000008000000007047FFF7FDFF72B60F4C104DAC4209DA21686268A368043B02DBC858D050FAE7EB
:400140000C34F3E70A490B4A0020521A02DD043A8850FCDC084809490860BFF34F8F00F005F900F01DF8FEE7A0220010B82200103C060008140800080000000808ED00E0EB
:40018000FEE7FEE700B504207146084202D0EFF3098001E0EFF30880043001F06FFCFEE710B562B6014800F067F9FEE70000081010B5002000F04AFF10BDC04670B562496A
:4001C000E0239B00CB580F2213401A00D0329200525807210A40032A05D0042A06D0002A12D15A4814E05A4A106811E01A00C0329200554952581F210A40112A06D0132A7C
:4002000004D0FA20C00103E0524801E080200002002B36D14C4BB222D2009A5801211140B125ED005A59120F032422405B591B0F1C4207D0444C63591B0F03242340012BDC
:4002400002D102E0012300E00023002B01D0002901D1032A4BD13C4BB022D2009D58AD03AD0B3D495958C904C90C9C58240E01231C40013401F0DAFC6843210001F0D6FCD0
:4002800035E0012B33D1304BC822D2009A5801251540C024E4001A59120F03210A401B591B0F194207D028490B591B0F03210B40012B02D102E0012300E00023002B01D049
:4002C000002D01D1032A12D11F4DC022D200AB587F210B40A958090A1F263140AC58240C3440584301F0A2FC210001F09FFCE0239B00154AD3581B0903221340D840144C5C
:400300006060164B1D692D0AFC32154001351969090E013101F08AFCA060290001F086FC0500E06020610E4BC0180E4901F07EFC20750D4BE818FA21890001F077FCA06199
:40034000C003E06170BDC0460000264000127A00C000000800366E0184050000000021403F420F0040420F00E703000010B5284801F056FC274CB022D200A3585B005B08AA
:40038000A350E0218900635830208343635080235B04A350204A214BE250A02292010433E250FF221E4BE25000F0BEFFC0225200A35801218B43A35000F00CFAFFF7FEFE1E
:4003C000B0235B055B78002B04D0B0235B055B78DBB200E02123212B03D1124B0022DA605A60114C22008021042000F0D5FB2000103000F069FC0D4B1A685123D35C002B4D
:4004000002D00B4800F0D6FC01F04EF810BDC046E42100100000264001000200840500008C050000E00023405806000810080008941D00108023024AD3580320184070475D
:400440000000214010B501F0ACFB084980228C58074B2340074C23438B508823034AD358DB06FAD501F0A1FB10BDC04600002140FCFF00000100FA0570B50500830504D089
:40048000E821FF310F4801F0CBFA01F08AFB0400FFF7D0FF032801D1FFF7D4FF0A4AB0239B00D55080215058084B03400848034353508823044AD358DB06FAD5200001F00D
:4004C00074FB70BDC81D001000002140FCFF00000300FA05FEE7C04630B587B0AA49A022D2008B58032083438B50A84A116808688823CB58C3181868A549084018601368AB
:40050000186884241B59C01803681B021B0A80256D042B430360106805680359EB1818680140196013683E229A5C002A06D09648E02189004258753CA24342503E229A5CE4
:40054000002A06D09048E021890042583024A24342503E229B5C002B07D08B49E02292008B588020000603438B500021012000F085FD0021022000F081FD0021032000F0B0
:400580007DFD0021042000F079FD0021002000F075FD01A87F4903000A0032CA32C312CA12C300F099FD002802D00420FFF792FF7549794A8B588020000603438B5077483E
:4005C00000F044FE002802D00420FFF783FF6E4C734BE158734A0A40E250E158724A0A40E250E25880252D062A43E250043BE1586E4A0A40E250E1586D4A0A408021890116
:400600000A43E250E258802109020A43E250694A1168694B0B40802149000B431360002001F0C6FA654BE2581543E550E158012291430A43E2506421002001F037FA534BA4
:400640001B683F229A5C052A03D900215C4A986881509A6874215B5AD21811684C4B0B40C021C9000B431360484B1B687322995C703A8A40110070229A5C7220185C82408C
:400680000A43802109060A438021C900986842509A6852583F229A5C062A06D970229A5C01210A404749986842509A6874215B5AD2185168364B0B408C2189010B435360D9
:4006C000324B1B6873229A5C0321914070229A5C7220185C140084402143012002400A43802109060A438021C900986842509A6852583F229A5C142A0BD97122985C703AB1
:4007000082401100032282400A40C5210901986842509A6876215B5AD21811682A4B0B402A490B431360194B19687323CB5C032422009A4013007022885C02328A5C904056
:4007400018437123CB5C01229A409C402300134003438022120613438022D200886883508B689B583F23CB5C1A2B0AD988687123C95C703B8B401A0003238B401340144A15
:40078000835007B030BDC0460000264010080008FF00FFFFE01D0010087F0000400D030004050000FEFCFFFFFFFF00FFFFF0FFFFFF8FFFFF00002740FFFCFFFF0C0500006D
:4007C000140C0000180C0000FF0000FF00C30900680C000070B58AB09621002001F066F901F03CF9002801D101F028F9012001F0A3F8284A516C284B0B40E82189010B4344
:400800005364536C1B0AFF2213403A2B07D1214A516C224B0B40E82189010B435364FFF75BFE01AC1E4D22002B00143343CB43C243CB43C243CB43C221001A4800F03CFE13
:4008400022002B00383343CB43C243CB43C243CB43C22100144800F02FFE22002B005C3343CB43C243CB43C243CB43C221000F4800F022FE22002B005C3323CB23C223CBB3
:4008800023C223CB23C22100094800F015FE0AB070BDC04600002740FF00FFFFFFC5FFDFE01D00108002324000033240000532400006324070B505000C001A4B1B6828224B
:4008C0009A5C012A15D1820807211000884327D19200AD1AED00FF20A8401B6820339A181168AC4023004B40184004004C40146016E03A229B5EDBB2994203D176210A48B8
:4009000001F08EF8074B1B681B68072215408022120615438022920194466444A400E55070BDC04610080008601E001070B504000D000B4B9A680B4B9A420CD1002904D14C
:400940003821FF31084801F06BF81034054BA400E058E55003E01034A400044BE05870BD00ED00E000000008601E001000000010F0B5474680B482B0061E01914AD04368A0
:40098000032B03D93221264801F04AF80023F05E002804DBB178FFF78DFF002400E0214C0023F15E7368002912DB88081E4FC0308000C55903221140C900FC3290468A40AA
:4009C00095439A01434613408B402B43C35116E089B20F220A40083A92080632920013481018476803221140C900FF252A008A4097439A012B0013408B403B4343600B4B4B
:400A00009A680B4B9A4206D10023F05E0199FFF78DFF00E0034C200002B004BC9046F0BD601E00100100560000E100E000ED00E00000000870B504000D000A4B1A68B4237B
:400A4000D3581B181B68002B0ADA0B0C03D00649064800F0E5FF2D042D0C6560002000E0034870BD10080008D5020000A41E001001008A0070B505000C000368002B01DA89
:400A8000002300E0084B002B0BD1EA60230C03D00649074800F0C4FF2404240CAC60002000E0014870BDC04601008A00BB020000A41E001070B505000C1E03D19921084810
:400AC00000F0AEFF074B1A68B423D3585B191B68002B03DAEB682360002000E0024870BDE41E00101008000801008A0070B504000D00234B1A683123D35C834236D90029D4
:400B000036D00B68DB0635D13123D35C984204D3C421FF311B4800F083FF194B1B681A6AB0215B5A5C431419174E34602B68DA080021686801F006F900212000FFF77AFF7B
:400B40003468002D03D111490E4800F069FF2A0000212000FFF78EFF00280DD10A4B18680021FFF767FF002808D108E0084806E0074804E0064802E0064800E0054870BD60
:400B800010080008A41E0010E80700089303000003018A0001018A0010B50400002A17D1002915D1124B1A683123D35C984204D3C421FF310F4800F033FF0D4B1B681A6AB2
:400BC000B0215B5A5C4314190B4B1C6000200EE0002A09D0002909D0074B59609A60191D2000FFF783FF02E0044800E0034810BD10080008A41E0010E807000803018A004E
:400C0000F0B583B00D001C4B1B68DC68236883422DD947097B01C01A012383401E00002903D100F0BEFF019001E000230193124B18680368002B01DA002300E00F4B002BF7
:400C40000ED16368BF00DF193B68334203D0B3433B60002400E00A4C0021FFF7EBFE00E0084C002D04D1019800F09FFF00E0064C200003B0F0BDC046E807000801008A00A6
:400C8000020188000301880004018A000A4B1B68DA68136883420BD943095901401A0121814052689B009B580B4203D0034802E0034800E003487047E8070008010188002A
:400CC00004018A0000018800034B1B68002B01D1014B18607047C046F4070008F0B5474680B404000F0090461E002D4B1B68002B03D1B5212B4800F093FE294B1B682C2016
:400D000060431C18FF22150035402560330A13406360360CA660244B1A683123D35C9D4204D3C421FF31214800F07AFE1E4B1A68B023D35A6B43116A8C4663442361666822
:400D40003223D35C9E4204D3E021FF31174800F067FE154B1B681D6A80367601AD196561A668330C04D0FF214900104800F058FE330C03D00E490D4800F052FE3604330C91
:400D80001E43AE604346E36127620023A361069B002B02D000229B5EA38104BC9046F0BDF4070008241F001010080008A41E0010FF010000F0B58FB0041E03D15221294821
:400DC00000F02EFE6368032B03D95421254800F027FEE36A002B03D15821224800F020FE236B002B03D159211E4800F019FE07AA1300210061C961C321C921C302AD290081
:400E000023001433C1CBC1C141CB41C10821535E0CAE3380144B1B6836215B5E07998C466344B370089B0D930B9B0A980096A26AE16AFFF753FF2B69E8680022009200213E
:400E4000FFF74CFF216B3000FFF792FD0023F25E002A05DB1F231A401E3B9340034A13600FB0F0BD241F00101008000800E100E0F8B505000F0016001C00002A03D1FD213C
:400E8000224800F0CDFD224B1B68002B03D1FE211E4800F0C5FD1E4B1B682C2128004843181879435918012213004D68AB401B044568AA4015000269002A20D08F69002F52
:400EC0001FD11268002A01DA002200E0114A002A19D132681204120C134333600369DE6001238B614C6204692B0C03D00A490B4800F096FD2A04120CA260002004E00848B1
:400F000002E0084800E00748F8BDC046241F0010F407000801008A00BB020000A41E001004028A0007028A0070B504000D0016000F4B1B68002B04D1AF2149000D4800F07B
:400F40006FFD0B4B1B682C2060431C18236A002B04D1B1214900074800F062FDE369B34204D9236AB6009D51002000E0024870BDF4070008241F00100A028A0070B582B0BA
:400F8000040000230193002804D1D221FF312D4800F046FD2369002B04D1E9214900294800F03EFD6369002B04D1D421FF31254800F036FD236A002B04D1EA214900214868
:400FC00000F02EFD6269D5682B0C24D01B041360136820691C4B1A68B423D358C3181B68002B18DA01A9FFF765FD00280ED1019803681E0CFF221340E269934207D29B0068
:40100000226AD358002B02D0984700E0002631002069FFF70FFD2D042D0C0FD063691D601B68636A002B03D098470023636203E0A36A002B00D098470023A36163691B6874
:4010400002B070BD241F00101008000810B50400084B1B68002B04D1B221FF31064800F0DFFC044B1B682C2060431818FFF786FF10BDC046F4070008241F0010134B1A68EE
:401080003C23D35C83421DD9042904D94B1EFF3B9BB2132B18D8FF290CD91F2319400C4A0300C0339B009950D03080000423835000200AE007231940D0308000044BC15060
:4010C000002002E0034800E002487047100800080000264001004A0070B5041E03D14A494A4800F09DFCB023DB00494AD358002B00DA87E0474B22689A4203D94649434862
:4011000000F08EFC23689B039B0BE279002A02D08022520400E000221343B022D2003C498B50A2883D4B9A4204D984218900374800F076FC2289344B9A4203D93849334863
:4011400000F06EFCA388DB04D90C23891B04354A13400B43344A2E498B50A37A0F2B04D986218900294800F05BFCE37A0F2B03D92E49264800F054FCA289284B9A4203D961
:401180002B49224800F04CFCA37A0F211940E27A1201FF2313400B43A289120225490A401343A27B1207C02189050A401343B122D20017498B50A379042B03D91E491348E6
:4011C00000F02EFC228A104B9A4204D9892189000E4800F025FC0E4818494558184B1D40A3791B02E022D20013402B4343504558144B1D40238A1B040A4A13402B43435039
:40120000002000E0104870BDFF010000641F001000002640FFFF030009020000FF1F0000110200000000FF0184050000190200001A02000000FF1F00230200008C0500005F
:40124000FFF8FFFFFFFF00FE03004A0070B505003149324A8B588020000603438B502C0003E0012000F0D0FB013CB223DB002A4AD3585B0701D4002CF3D12749B122D200B3
:401280008858274B03408020800503438B50002D01D0002C0CD02049B022D2008B588020000603438B5003E0012000F0ADFB013CB223DB00184AD358DB0701D4002CF3D1D9
:4012C000002D01D0002C08D01349B122D2008B58C020800503438B5013E00F4BB121C90058580F4A02408020800502435A5008395A58520052085A5008495A585200520843
:401300005A50002D03D0002C03D0002002E0002000E0044870BDC046000026408C050000FFFFFFCF02004A000749C02252008B589B009B088020C00503438B508B588020C6
:40134000000603438B50704700002640214B984230D00ED8402831D004D800281FD010282AD031E080282BD080235B00984229D02AE0194B984229D007D8A0231B0698420C
:401380000DD0164B984212D01EE0154B98420AD0144B984209D0144B984215D101E0002016E0124814E0124812E0124810E0A020C0030DE007480BE00F4809E00F4807E0ED
:4013C0000F4805E0034803E00E4801E0A420C0037047C04606005200010000F0090000A0040000F0050000F0030000F001005200020052000300520001005000020050009B
:4014000005005200FF00520070B5124B1A683123D35C002B04D1C421FF310F4800F000FB0C4B1D682C00B423EB582A6A944663441B68002B0BDB094B1868FFF787FF6B6838
:4014400001229A6063689B68002BFBD100E0044870BDC04610080008EC1F0010F80700080200500010B50D4B1861002805D002230370FD33437000234380094B1B6850225A
:401480009A5C002A08D051229B5C002B04D04F3A04490020FFF748FD10BDC046F8070008100800086101000810B502481430FFF7D9FF10BDF807000870B505000C000028E3
:4014C0005DD000295DD0FF230A689A4303D099212D4800F0A5FAFF2322699A4303D09A21294800F09DFAA3685B0D03D09B21264800F096FA63685B0A03D09C21224800F04D
:401500008FFAE3695B0F03D09D211F4800F088FA236A5B0F03D09E211B4800F081FA1B4A11688B69EB1ADB0949691B01CB18216829607D211068415C6918E06808607E21AA
:401540001068415C6918206908607F211068415C6918606908607C211068415C6918A06808606168A961116880228A5CAD18A2692A60E2691A60226A5A60002002E0044853
:4015800000E0034870BDC0462C2000101008000801005A0010B5B0235B059B899BB2002B04D0B0235B059B899BB201E080235B0080225200934215D1184C23681968683A4A
:4015C0009B58C9180B680F208343963A13430B6021680C689C23CB58E318196881430A431A6019E00D4C2368196898229B58C918B02040050A4BC2580A4B13400A68134358
:40160000C022920013430B60226811689C23D358CB18054A82581A6010BDC0461008000848180000FFFCFFFF4418000030B5B0235B059B899BB2002B04D0B0235B059B897B
:401640009BB201E080235B0080225200934215D1184C23681968683A9B58C9180B680F208343953A13430B6021680C689C23CB58E318196881430A431A6019E00D4D2B68E5
:40168000196898229B58C918B0246405C12040012258094B13400A681343C022920013430B602A6811689C23D358CB1822581A6030BDC04610080008FFFCFFFFB0235B0593
:4016C0009B899BB2002B04D0B0235B059B899BB201E080235B008022520093420DD1104B1B681A6898215B58D21811680D4B0B40C021C9010B43136011E0094B1B681968C9
:4017000098229B58C918084BB0225205D258074B13400A681343C022920013430B60704710080008FF8FFFFF18180000FFFCFFFF30B5B0235B059B899BB2002B04D0B023EC
:401740005B059B899BB201E080235B008022520093420DD1134B1B681A6898215B58D2181168114B0B408021C9010B43136018E00C4D2B68196898229B58C918B0246405DD
:401780000A4822580A4B13400A681343C022920013430B602A6811689C23D358CB1822581A6030BD10080008FF8FFFFF4C180000FFFCFFFF10B5B0235B059B899BB2002B62
:4017C00004D0B0235B059B899BB201E080235B0080225200934217D1002000F007FAB0235B055B78002B04D0B0235B055B78DBB200E02123222B03D8002803D1013004E0DB
:40180000012002E0002000E0012010BDF8B50700012803D93D493E4800F002F9B0235B055B78002B04D0B0235B055B78DBB200E021239DB2B0235B059B899BB2002B04D059
:40184000B0235B059E89B6B201E080267600002000F0CCF9002814D180235B009E4212D1222D12D82B4B1B685C682B4821582B4B19403B068022520413400B4323500024E4
:4018800004E0274C02E0264C00E0254C80235B009E4201D1222D03D880235B009E4232D01C4B1A683123D35C002B04D1C421FF311C4800F0B5F8174B1B681D6A80235B0086
:4018C0009E4203D1002F05D0174A06E0002F03D0164A02E0164A00E0164A01212800FFF7C9F800280FD10B4B1A68B423D3585B191B68002BF7DBEB681B0E1B06A0221206B7
:40190000934200D100242000F8BDC0464C0A0000AC2000101008000818F00000FFFFFFFE04004200EC1F0010010100300300000C010000300100000CF8B50500012804D915
:4019400082210901294800F06BF8FFF733FF002849D000F026F90700002D11D10021244B244AD150E823DB00B0225205D65CF6B20120FFF74BFF041E19D1FFF70BFE16E0FE
:40198000B02252051C4BD0581A4B194958501B49565CF6B21A481A581F218A4314390A431A50032000F030F8FFF7C2FE0024002C15D11049124A8B581F20834306401E43F2
:4019C0008E50002D02D1FFF779FE08E0072000F01BF8FFF72BFE0020FFF718FF0400380000F0E3F800E0074C2000F8BDAC200010307F0000000026401018000041070000CE
:401A00001CFF00000300420010B5034B1B78584300F0BEF810BDC046D400000801BEFEE770B50D00044C18220100200000F092F9A5610020FFF7F2FF00060008054B8022A7
:401A400012069A649B6C002B01DB002000E002487047C0460000274003004600054B8022120198585B68FF221A4202D08023DB021843704700002640FEE7C04610B50A4B87
:401A80000268DA6142681A6282685A62C2689A620269DA6242691A6382695A63C2699A63FFF7EAFF10BDC04600060008F0B5474680B4002801D0192300E064238B429B4185
:401AC0005B42304D2C682268A826A45BA41822680327BA433B401A4322602C682268A45BA2181668284CA046264016602C682668AA229446A25A96193268BA43134333609C
:401B00002A6813686546525BD3181A68444614401C60002805D010291BD921291BD8012024E0184B1B6855229A5C914215D956229A5C914213D957229A5C914211D9582206
:401B40009A5C91420FD959229B5C99420DD804200CE000200AE0022008E0002006E0012004E0022002E0032000E00520054A1268526813680F218B430343136004BC9046DC
:401B8000F0BDC04610080008FFFCFFFF000000000230800803D001300238FCD1C046C0467047EFF3108072B6704780F310887047042805D10B4A116804230B4313600FE017
:401BC000094B1A681168A023D358CB180006C022920410401860034A136804218B4313607047C04610E000E01008000810B50400094B1B689B6CC340DB0703D4BE21074813
:401C0000FFF70EFF044B1B681B691034A402E3580F20184010BDC04610080008EC200010014B18607047C04610080008002243088B4274D303098B425FD3030A8B4244D372
:401C4000030B8B4228D3030C8B420DD3FF22090212BA030C8B4202D31212090265D0030B8B4219D300E0090AC30B8B4201D3CB03C01A5241830B8B4201D38B03C01A524137
:401C8000430B8B4201D34B03C01A5241030B8B4201D30B03C01A5241C30A8B4201D3CB02C01A5241830A8B4201D38B02C01A5241430A8B4201D34B02C01A5241030A8B42FE
:401CC00001D30B02C01A5241CDD2C3098B4201D3CB01C01A524183098B4201D38B01C01A524143098B4201D34B01C01A524103098B4201D30B01C01A5241C3088B4201D3F3
:401D0000CB00C01A524183088B4201D38B00C01A524143088B4201D34B00C01A5241411A00D20146524110467047FFE701B5002000F006F802BDC0460029F7D076E770471C
:401D40007047C04603008218934202D019700133FAE77047030030B5002A0DD00C7801335D1E013A2C700131002CF5D19A189A4202D01C700133FAE730BD0000F8B5C0464F
:401D8000F8BC08BC9E467047F8B5C046F8BC08BC9E467047030000000100000001000000000000000503600004000000010000000000000001000000060460000800000065
:401DC000C8070008B101001073797374656D5F70736F63365F636D30706C75732E630000F4010000140004010A00090508000000630100000F000000000000000000000006
:401E0000688800000000000000000000000000001414141400000000300000000000000000000000000068BA0000000000000000000000000000000012121D1D4000000072
:401E4000000000000000000000000006000000000000000000000000000000000000080047656E6572617465645F536F757263655C50536F43365C70646C5C6472697665FC
:401E800072735C7065726970686572616C5C737973696E745C63795F737973696E742E630000000047656E6572617465645F536F757263655C50536F43365C70646C5C643B
:401EC0007269766572735C7065726970686572616C5C6970635C63795F6970635F6472762E68000047656E6572617465645F536F757263655C50536F43365C70646C5C6471
:401F00007269766572735C7065726970686572616C5C6970635C63795F6970635F6472762E63000047656E6572617465645F536F757263655C50536F43365C70646C5C6435
:401F40007269766572735C7065726970686572616C5C6970635C63795F6970635F706970652E630047656E6572617465645F536F757263655C50536F43365C70646C5C6493
:401F80007269766572735C7065726970686572616C5C737973636C6B5C63795F737973636C6B2E630000000047656E6572617465645F536F757263655C50536F43365C7036
:401FC000646C5C647269766572735C7065726970686572616C5C737973636C6B5C63795F737973636C6B2E680000000047656E6572617465645F536F757263655C50536FA6
:4020000043365C70646C5C647269766572732F7065726970686572616C2F6970632F63795F6970635F6472762E68000047656E6572617465645F536F757263655C50536FB6
:4020400043365C70646C5C647269766572735C7065726970686572616C5C6770696F5C63795F6770696F2E630000000047656E6572617465645F536F757263655C50536FB9
:4020800043365C70646C5C647269766572735C7065726970686572616C5C6770696F5C63795F6770696F2E680000000047656E6572617465645F536F757263655C50536F74
:4020C00043365C70646C5C647269766572735C7065726970686572616C5C737973706D5C63795F737973706D2E63000047656E6572617465645F536F757263655C50536F1F
:4021000043365C70646C5C647269766572735C7065726970686572616C5C70726F745C63795F70726F742E6300000000000020400000244000000040000000000000234032
:40214000000030400000314000009F40000022400000104002020202020202020210101D800017007500FF030602063604102000000000007FC000000004000000000000D5
:402180000019324B647D00804000080B100000000000FF012002001F00800004FF081018001000140018001C4044484C5000000008100000080000000400000004100000D9
:4021C0000012000004210000002100000016000040114002C41300138013A013200000001C00000000002140000025400000014000003440000024400000314000003240B0
:4022000000001F410000234000001140010101010101010101101010800019005500F0000501053B04101C01010000000FC000000004000001010101011D3A57789600085F
:402240002000101208000000001F00000010000F002000023F06080E00080009000A000B24282C3034000000100000009000000088000000080000008000000004F00000B3
:4022800000F00000400200002005A000D00100018001A0012000000010000000000000000000001000000008C0000000C0220010C0000008400500003C060008D801000009
:4022C0000048E80100127A0000093D0000093D0000093D0004000000A00F00000000D007E9000010C10000100000000010B50004400B27D0144B1A68146AB023D15ACA00C9
:40230000531AE3181B68002BF4DA3E220F4B1A600F4A104B1A60104B0621A322D20099500E4A98509B58084B1A68106AB023D15ACA00531AC31800225A60084B064AD35819
:40234000002BFADA10BDC04610080008040126401E1F000008012640000026401C05000010B54378FF2B20D100F002FA04000F4B1A683123D35C042B04D8C421FF310C486F
:4023800000F01EFA094B1A68116AB023D35A9B00CB18DB685A68116801230B4313601368DB07FCD4200000F0EBF910BD10080008EC1F0010F0B585B001900291544B1A689B
:4023C0003123D35C002B04D1C421FF31514800F0F7F94F4B1B681E6AB4229A58971950229B5C002B77D000F0F3F9050003283CD1474B1A683123D35C062B04D8C421FF3102
:40240000444800F0DDF9424B1968B023CB5A5A00D21853000A6A94466344B4228A58D3181B68002B23DB002000F0DAF93A4B98421FD03A4B1A6900230021012000F0B8F92A
:40244000002803D0364C17E0013400E00024002000F0C6F9304B984202D0324B9C42F3D9304B9C4207D92E4C06E0002404E02C4C02E02B4C00E00024002C46D100F078F978
:402480000390294B294AD358002B13DA234A0121300000F085F900280ED10298FFF726FF019B002B0AD03B68002BFCDB00F0A0F9040004E01A4C02E0194C00E01C4C032D9A
:4024C00005D10121002000F063F90028F9D1039800F056F919E000F04BF905000F4A0121300000F05DF9002809D1019B002B08D03B68002BFCDB00F07BF9040002E0084CA5
:4025000000E00B4C280000F03BF9200005B0F0BD10080008EC1F001001018800F807000805005200EF4902001C0500000000264001005000F0B54F464646C0B4824B1A68D8
:402540005468B0235B055B78002B04D0B0235B055B78DBB200E02123212B67D1B023D15ACB005B1A116A8C46634419680029F5DADD6802212943D960B023D15ACB005B1A69
:40258000116A8C466344D968C9073ED5D9680904090C8C4684271168D559A84641440968090A0904FF26360431400D0088261168894691598846C14449460968090A0906C6
:4025C000294365462943D9601168D359C9180A685E4B98461A4090252D012A430A605A4B99461A6813689C46925962441368414619400B002B4313604B461A681568D15997
:4026000069180B689359EB181B684F4B1A68B021555AEB005B1B156AAC46634400255D60156A515ACA00531AEB185B68484A116904230B431361012801D030BF00E020BF79
:40264000414B1A68B023D15ACB005B1A116A8C46634419680029F3DAB02149054978002904D0B02149054978C9B200E02121212932D1D968C90722D5106884215258801895
:402680000468324A1440DB681B0C1B02FF2109020B40234303602C4B19688823C8580B689C46604403681A400D6AB023CC5AE1000B1BEB18DB681B0E1B021A430260224B68
:4026C0001A68106AB023D15ACA00531AC318DA6802218A43DA6028E086235B00E358002B23D11C4807681C4BA321C9005E581B4A904615681A4A0260062058503E2142464C
:4027000011600631174A9950164B134AD358002BFADA154A86235B00E2500E4B1F60A323DB000D4AD6500D4B1D60074B1A68106AB023D15ACA00531AC31800225A600CBC5D
:4027400090469946F0BDC04610080008FF00FFFF00ED00E00801264000002640040126401E1F00001C050000AAAAAAAA0000000001B40248844601BC604700BFA31B001007
:4027800001B40248844601BC604700BFAB1B001001B40248844601BC604700BF010C001001B40248844601BC604700BF750A001001B40248844601BC604700BF710E001058
:4027C00001B40248844601BC604700BF211A001001B40248844601BC604700BF3504001001B40248844601BC604700BF8D0C001001B40248844601BC604700BF09140010BF
:020000041008E2
:4000000000780408EB0208100D00000051030810510308105103081051030810000000000000000000000000000000004D0308104D030810000000004D0308104D030810DA
:400040004D0308104D0308104D0308104D0308104D0308104D0308104D0308104D0308104D0308104D0308104D0308104D0308104D0308104D0308104D0308104D03081000
:400080004D0308104D0308104D0308104D0308104D0308104D0308104D0308104D0308104D0308104D0308104D0308104D0308104D0308104D0308104D0308104D030810C0
:4000C0004D0308104D0308104D0308104D0308104D0308104D0308104D0308104D0308104D0308104D0308104D0308104D0308104D0308104D0308104D0308104D03081080
:400100004D0308104D0308104D0308104D0308104D0308104D0308104D0308104D0308104D0308104D0308104D0308104D0308104D0308104D0308104D0308104D0308103F
:400140004D0308104D0308104D0308104D0308104D0308104D0308104D0308104D0308104D0308104D0308104D0308104D0308104D0308104D0308104D0308104D030810FF
:400180004D0308104D0308104D0308104D0308104D0308104D0308104D0308104D0308104D0308104D0308104D0308104D0308104D0308104D0308104D0308104D030810BF
:4001C0004D0308104D0308104D0308104D0308104D0308104D0308104D0308104D0308104D0308104D0308104D0308104D0308104D0308104D0308104D0308104D0308107F
:400200004D0308104D0308104D0308104D0308104D0308104D0308104D0308104D0308104D0308104D0308104D0308104D0308104D0308104D0308104D0308104D0308103E
:400240004D0308104D0308104D0308104D0308104D0308104D0308104D0308104D0308104D0308104D0308104D0308104D0308104D0308104D0308104D0308104D030810FE
:400280004D0308104D0308104D03081010B5054C237833B9044B13B10448AFF300800123237010BDE448020800000000A4140810084B10B51BB108490848AFF30080084867
:4002C000036803B910BD074B002BFBD0BDE81040184700BF00000000E8480208A4140810B4420208000000007047FFF7FDFF72B6104C114DAC4209DA21686268A368043BAC
:40030000A2BFC858D050FAE70C34F3E70B490C4A00209142BCBF41F8040BFAE709480A490860BFF34F8F00F051F900F02BF900F01DF8FEE7A8140810C0140810E448020816
:40034000E84A02080040020808ED00E0FEE7FEE700B504207146084202D0EFF3098001E0EFF30880043000F033FEFEE708B562B6184B1968886891F87340032303FA04F4BC
:4003800091F8702091F87250AA40144391F87120012505FA02F603FA02F206EA0203234343F00043C0F800348B68D3F800340A4C0A4A0721204600F077FC8023A360A3617C
:4003C000074A2946204600F06FFC0223A360A361FEE700BFE44A020800003840281108108C11081008B5012000F048FC08BD00BF704700BF5C4AD2F8803303F00F0303F1CE
:40040000D00152F8212002F00702032A04D0042A05D092B9554914E0554A116811E003F1C002514951F8222002F01F02112A06D0132A04D04FF4FA4103E04E4901E04FF44F
:4004400000418BBB484BD3F8902502F00100D3F88825C2F30172D3F8883513F0405F07D0414BD3F88835C3F30173012B02D102E0012300E0002303B108B9032A46D13A48CD
:40048000D0F88025C2F31103D0F88425C2F30C02D0F88005C0F300600130B1FBF2F202FB03F2B2FBF0F131E0012B2FD12E4BD3F8402602F00100D3F80026C2F30172D3F873
:4004C000003613F0405F07D0274BD3F80036C3F30173012B02D102E0012300E0002303B108B9032A12D12048D0F8002602F07F02D0F80036C3F30423D0F80006C0F30440BA
:4005000002FB01F2B2FBF3F2B2FBF0F1164BD3F88033C3F3011321FA03F215494A601648D0F89030C3F3072301330069000E0130B2FBF0F08860B2FBF3F3CB600B6103F5B1
:40054000742202F23F220D48A0FB0202C2F387420A7503F2E7330A4AA2FB03239B098B61DB03CB61704700BF0000264000127A008C42020800366E010000214083DE1B43DA
:40058000D34D621008B50D4800F086FDFFF730FFFFF730FF00221146042000F037F9084800F0CAF9074B1B6893F8513013B1064800F032FA00F0F2FC08BD00BFEC13081092
:4005C00000490208E44A0208F410081008B500F05CFD074AD2F8883043F47003C2F88830BFF34F8FBFF36F8F00F053FD08BD00BF00ED00E038B50D4B9A680D4B9A420FD133
:400600000D46044621B940F237110A4800F0D0FC04F11003064A52F8230042F8235038BD1030054B53F8200038BD00BF00ED00E000400208F01108100000081048B338B575
:4006400004460D464368072B03D93221134800F0AFFCB4F900306268002B08DB5201D2B203F1604303F5614383F8002305E003F00F035201D2B20A49CA540A4B9A680A4BA0
:400680009A4208D12946B4F90000FFF7B3FF002038BD06487047002038BD00BFF011081014ED00E000ED00E0004002080100560038B50B4B1B68D3F8B4301B58002B0DDA71
:4006C0000D4604460B0C1B0423B140F2D521054800F06EFCA9B26160002038BD024838BDE44A02083412081001008A0038B50368002B01DA002300E0094B73B90D46044675
:40070000C2600B0C1B0423B140F2BB21054800F04FFCA9B2A160002038BD014838BD00BF01008A003412081038B504460D4619B99921084800F03CFC074B1B68D3F8B4308E
:400740001B59002B03DAE3682B60002038BD034838BD00BF74120810E44A020801008A00254B1B6893F8313083423AD900293AD00B6813F01F0F38D170B50D4604461E4BF0
:400780001B6893F83130984204D340F2C3111B4800F00EFC184B1B68186AB3F8B03004FB0304174E34602A68D2080021686800F079FC00212046FFF77BFF346825B940F25F
:4007C00093310E4800F0F4FB2A4600212046FFF78DFF60B900210A4B1868FFF769FF40B970BD084870470748704706487047064870BD054870BD00BFE44A02083412081098
:40080000804A020803018A0001018A0010B504461346B2B9A9B9124B1B6893F83130984204D340F2C3110F4800F0C2FB0C4B1B681A6AB3F8B03004FB03240B4B1C6000200D
:4008400010BD43B149B1084A51609360111D2046FFF786FF10BD054810BD044810BD00BFE44A020834120810804A020803018A002DE9F0411B4B1B68DC68236883422CD938
:400880000D464609A0EB4610012303FA00F819B900F0FBFB074600E00027124B18680368002B01DA002300E00F4B83B9626852F8263018EA030F05D023EA080342F82630AE
:4008C000002400E0094C0021FFF7F2FE00E0084C25B9384600F0DDFB00E0064C2046BDE8F08100BF804A020801008A00020188000301880004018A000B4B1B68DB681A6830
:4009000082420CD94109A0EB4110012202FA00F05B6853F82130184203D004487047044870470448704700BF804A02080101880004018A0000018800024B1B680BB9014B2F
:40094000186070478C4A02082DE9F8430446884691461D46089F2C4B1B681BB9B5212B4800F026FB284B1B682C2000FB04F01C18EEB21E50C5F3072363602D0CA560244B31
:400980001B6893F831309E4204D340F2C311214800F00EFB1E4B1B68196AB3F8B02006FB02162661666893F832309E4204D340F2DF11184800F0FCFA154B1B681D6A803625
:4009C00005EB46156561A668330C1B0423B14FF4FF71104800F0ECFA330C1B0423B140F2FF110C4800F0E4FAB3B243EA0646AE60C4F81C90C4F820800023A36117B1B7F9E0
:400A00000030A381BDE8F8838C4A0208B4120810E44A020834120810F0B58FB0044618B95221274800F0C4FAA369072B03D95621234800F0BDFAE36A1BB95821204800F0CA
:400A4000B7FA236B1BB959211D4800F0B1FA07AD04F114060FCE0FC537682F6002AD26460FCE0FC533682B60164B1B68B3F93620079B1344ADF83030089B0D93A26AE16AD7
:400A80000CAD00953B460A98FFF75EFF00210091069B0A460598FFF757FF216B2846FFF7CDFDBDF93030002B08DB590903F01F03012202FA03F3044A42F821300FB0F0BD37
:400AC000B4120810E44A020800E100E0F8B506460F461D4614461AB9FD211F4800F068FA1E4B1B681BB9FE211B4800F061FA1B4B1B682C2101FB063001FB07314B6801226B
:400B000002FA03F31B04466802FA06F60269EAB18F69EFB91268002A01DA002200E0104AC2B92288134323600369DC6001238B614D620469330C1B0423B140F2BB2109481A
:400B400000F036FAB2B2A2600020F8BD0648F8BD0648F8BD0548F8BDB41208108C4A020801008A003412081004028A0007028A00F8B505460F4616460E4B1B6823B94FF4A4
:400B8000AF710D4800F014FA0A4B1B682C2404FB0534236A23B94FF4B171074800F008FAE369B34204D9236A43F826700020F8BD0248F8BD8C4A0208B41208100A028A00AF
:400BC00070B582B000230193044620B940F2D111284800F0EDF9236923B94FF4E971254800F0E6F9636923B940F2D311214800F0DFF9236A23B94FF4EA711E4800F0D8F90C
:400C00006369DD682A0C20D012041A601B682069194B1B68D3F8B430C358002B15DA01A9FFF782FD60B9019803681E0CDBB2E269934206D2226A52F8233013B1984700E07F
:400C4000002631462069FFF733FDADB275B16369ADB21D601B68636A1BB198470023636202E0A36A03B198470023A36163691B6802B070BDB4120810E44A020810B504461C
:400C8000074B1B6823B940F2B111064800F090F9034B1B682C2000FB0430FFF791FF10BD8C4A0208B4120810002800F0AC8070B40446002A00F0A98092F828300BB10125B2
:400CC00000E00025137F0BB1022300E000231D431669B60406F4802645EA060395682D0405F440351D431668300600F0E0602843136B556B43EA45031B0503F4401303435A
:400D0000906B43EA8000052E03D1D3681B029BB202E053681B029BB20343081D800123501368062B08D104EB81130120C3F808013F20C3F828011DE0936843B904EB811352
:400D40000020C3F808013120C3F8280112E0012B08D1506904EB8113C3F808011C20C3F8280107E004EB81130120C3F808011220C3F82801106A04EB8113C3F80C01506A5F
:400D8000C3F810015069C3F814019069C3F81801136EB3F1FF3F17D0106C00F00F00966C360206F470663043156D2D0405F470250543906D000380B228431B01DBB20343BA
:400DC00004EB8110C0F82031D36B03F00303566C360106F030063343D56C2D0205F440752B43506D8001C0B21843D36D9B0003F00C03034304EB8114C4F82431D36AC4F850
:400E00003831002002E002487047014870BC70470100B6001F4B98422DD00CD840282ED003D8E8B1102828D02FE0802829D0B0F5807F28D029E0184B984228D006D8B0F12B
:400E4000204F0DD0154B984212D01EE0144B98420AD00133984209D0023B984215D101E0002070470F4870470F4870470F4870474FF4A0007047074870470D4870470D4832
:400E800070470D487047034870470C4870474FF4A400704706005200010000F0090000A0040000F0010052000200520003005200010050000200500005005200FF00520097
:400EC00038B5124B1B6893F83130012B04D840F2C3110F4800F06CF80C4B1D682A6AB5F8B03013442C46D5F8B420D358002B0BDB084B1868FFF78EFF6B6801229A606368CC
:400F00009B68002BFBD138BD034838BDE44A0208F4120810904A0208020050001A4B186128B102230370FF23437000234380174B1B6893F850202AB300B583B0B3F9383033
:400F4000ADF800300023019311496846FFF776FBBDF90030002B08DB590903F01F03012202FA03F30B4A42F82130084B1B6893F8513023B1022208490120FFF7F9FD03B02B
:400F80005DF804FB704700BF904A0208E44A02082543020800E100E0DD43020808B50248FFF7BCFF08BD00BFA44A020801BEFEE738B50D46044C18220146204600F07AF83D
:400FC000A5610020FFF7F2FF50480208FEE700BF08B50268254BDA6142681A6282685A62C2689A620269DA6242691A6382695A63C2699A631E4A916AD963D16A1964516A29
:401000005964516B9964926BDA64F1EE103A13F0900F27D0026A154B1A65426A5A65826A9A65C26ADA65026B1A66426B5A66826B9A66C26BDA66026C1A67426C5A67826C31
:401040009A67C26CDA67026DC3F88020426DC3F88420826DC3F88820C26DC3F88C20026EC3F89020FFF7B2FF08BD00BF5048020800ED00E0000000000230800803D001300D
:401080000238FCD100BF00BF7047EFF3108072B6704780F310887047014B1860704700BFE44A020802440346934202D003F8011BFAE7704710B5034642B111F8014B03F839
:4010C000014B013A002CF7D11A4400E010BD934202D003F8014BFAE710BD0000F8B500BFF8BC08BC9E467047F8B500BFF8BC08BC9E467047030000000100000001000000CB
:401100000000000005036000040000000100000000000000010000000604600008000000604A0208E5030810040000000000000002000000000000000000000064000000B1
:4011400000800000000000000A00000000400000000000000000000001000000000000000200000003000000FFFFFFFF03000000FFFFFFFF03000000FFFFFFFF03000000A2
:40118000FFFFFFFF03000000FFFFFFFF04000000000000000200000000000000000000006400000000800000000000001400000000400000000000000000000001000000F5
:4011C000000000000200000003000000FFFFFFFF03000000FFFFFFFF03000000FFFFFFFF03000000FFFFFFFF03000000FFFFFFFF47656E6572617465645F536F7572636593
:401200005C50536F43365C70646C5C647269766572735C7065726970686572616C5C737973696E745C63795F737973696E742E630000000047656E6572617465645F536FC0
:40124000757263655C50536F43365C70646C5C647269766572735C7065726970686572616C5C6970635C63795F6970635F6472762E68000047656E6572617465645F536FFD
:40128000757263655C50536F43365C70646C5C647269766572735C7065726970686572616C5C6970635C63795F6970635F6472762E63000047656E6572617465645F536FC2
:4012C000757263655C50536F43365C70646C5C647269766572735C7065726970686572616C5C6970635C63795F6970635F706970652E630047656E6572617465645F536F20
:40130000757263655C50536F43365C70646C5C647269766572732F7065726970686572616C2F6970632F63795F6970635F6472762E6800000000204000002440000000406F
:401340000000000000002340000030400000314000009F40000022400000104002020202020202020210101D800017007500FF030602063604102000000000007FC0000084
:4013800000040000000000000019324B647D00804000080B100000000000FF012002001F00800004FF081018001000140018001C4044484C500000000810000008000000FB
:4013C00004000000041000000012000004210000002100000016000040114002C41300138013A013200000001C000000000021400000254000000140000034400000244089
:40140000000031400000324000001F410000234000001140010101010101010101101010800019005500F0000501053B04101C01010000000FC0000000040000010101014F
:40144000011D3A57789600082000101208000000001F00000010000F002000023F06080E00080009000A000B24282C30340000001000000090000000880000000800000070
:401480008000000004F0000000F00000400200002005A000D00100018001A00120000000100000000000000000000810004002088C020000C81408108C420208C405000018
:4014C000E4480208040200000048E80100127A0000093D0000127A0000127A0008000000401F00000000A00FB10208108D0208100000000080B2C10050B3164B1B681A6AAF
:40150000B3F8B030C3EBC303D358002BF5DA3E22114B1A6041F61E7204331A60A3F584730622C3F8182521F07F41C3F81C15D3F81C35084B1A68116AB2F8B030C3EBC30303
:401540000B4400225A60054BD3F81C35002BFADA704700BFE44A02080401264000002640F8B5274B1B6893F83130052B04D840F2C311244800F062FA214F3A68166AB2F8C2
:40158000B03003EB83031E4452684FF26003D458A4B200F05BFA05463B681968D3F890208A58013C032C27D8032A0CD1164A127812F0FF0F07D10822B2601968D3F8902005
:4015C0008A58032AF9D01968D3F884208B588858C0F307221B0E581C02FB00000B4B03FB00F00B4B1B680B4AA2FB03239B09B0FBF3F08230FFF77EFF284600F00FFAF8BD42
:40160000E44A0208F41208100B00001640420F0090420208D34D62104378FF2B23D110B500F014FA0446104B1B6893F83130042B04D840F2C3110D4800F000FA0A4B1A685D
:40164000136AB2F8B02003EB8203DB685A68136843F001031360136813F0010FFBD1204600F0DCF910BD7047E44A0208F41208102DE9F04707468846554B1B6893F8313000
:40168000012B04D840F2C311524800F0D7F9504B1B681C6AB3F8B0201444D3F8B420161993F85030002B79D04B4B1B7813F0FF0F02D04FF0000901E04FF00109B9F1000FC7
:4016C00038D0434B1B6893F83130052B04D840F2C311404800F0B2F93D4B1A68116AB2F8B03003EB83030B44D2F8B420D358002B22DB002000F09AF9384B98421ED00023DC
:40170000374A12690121184600F0A8F918B1354D17E0013500E00025002000F087F92F4B984202D0304B9D42F3D92F4B9D4207D92C4D06E0002504E02A4D02E0294D00E0F3
:401740000025002D41D100F081F98246274BD3F81C35002B10DA224A0121204600F086F960B94046FFF7C6FE57B13368002BFCDB00F04CF9054604E01A4D02E0194D00E0DC
:401780001B4DB9F1000F05D00121002000F076F90028F9D1504600F041F916E000F056F980460F4A0121204600F060F938B947B13368002BFCDB00F029F9054602E0094DA0
:4017C00000E00B4D404600F029F92846BDE8F087E44A0208F41208100B00001601018800904A020805005200EF4902000000264001005000F0B47F4B1A6855684FF0B05373
:401800005B7813F0FF0F04D04FF0B0535B78DBB200E02123212B55D1116AB2F8B030C3EBC303CC18CB58002BF6DAE36843F00103E360146AB2F8B030C3EBC3031C44E36851
:4018400013F0020F2DD0E3689EB21368D2F884105958090A090401F47F01D2F88870DB591B0A41EA03633343E3601168D2F884208B5823F47F4343F410638B505D4A1368EE
:401880001C68D3F88810635823F47F4343F41063635013681A68D3F884105158D3F88830D358544B1A68116AB2F8B030C3EBC3030B4400215960116AB2F8B030C3EBC30361
:4018C0000B445B684B4B19680C68D1F894301C44494A136943F004031361012801D030BF07E020BF454B1B7803B120BF0122434B1A70236803F00303022BE9D00A6AB1F87A
:40190000B030C3EBC303D018D358002BF6DA4FF0B0535B7813F0FF0F04D04FF0B0535B78DBB200E02123212B30D1C36813F0020F1FD00C68D1F88410635823F47F42C3687B
:401940001B0C1B0203F47F4313436350294B19680C68D1F88800235823F47F420D6AB1F8B030C3EBC3032B44DB681B0E42EA03232350204B1A68136AB2F8B020C2EBC202EB
:401980001344DA6822F00102DA6026E0D5F80C311BBB1B490E681B4BD3F818451A4A106841F61E770F600621C3F818153E2111604422C3F81C25134BD3F81C35002BFADA20
:4019C0004FF0AA33C5F80C310D4B1E60A3F58473C3F8184503F582731860064B1A68116AB2F8B030C3EBC3030B4400225A60F0BC704700BFE44A020800ED00E0A84A020855
:401A000008012640000026400401264001B40248844601BC604700BFC10E081001B40248844601BC604700BF9310081001B40248844601BC604700BFF908081001B40248E8
:401A4000844601BC604700BFB10F081001B40248844601BC604700BF8B10081001B40248844601BC604700BFCD0A081001B40248844601BC604700BFED06081001B4024831
:401A8000844601BC604700BF7108081000000000000000000000000000000000000000000000000000000000000000000000000000000000000000000000000000000000A8
:401AC00000000000000000000000000000000000000000000000000000000000000000000000000000000000000000000000000000000000000000000000000000000000E6
:401B000000000000000000000000000000000000000000000000000000000000000000000000000000000000000000000000000000000000000000000000000000000000A5
:401B40000000000000000000000000000000000000000000000000000000000000000000000000000000000000000000000000000000000000000000000000000000000065
:401B80000000000000000000000000000000000000000000000000000000000000000000000000000000000000000000000000000000000000000000000000000000000025
:401BC00000000000000000000000000000000000000000000000000000000000000000000000000000000000000000000000000000000000000000000000000000000000E5
:0200000490303A
:02000000157178
:0200000490501A
:0C0000000005E2F021002101E30536714B
:00000001FF