:400000000010002011000000810300008103000008B500F005FC00F0B5F90000F8B572B680220021D2004D4800F09DFF8023DA004B48002100F097FF0022101C4949FF25E5
:4000400054584700261CAE431031E3B2351CC919002B07D00F78013B7E194F78DBB237700231F5E7E4B204320019102AE6D1C0223D4D9104296080203C4F3D4C3D4A3E4DC5
:40008000C10399263E6023603C4F1060C02429603B4A3C49600340263E6010603A4F0B603A4B022531263A4C1D6099203E6039498023394F256002041E06384C0A60802018
:4000C0003E603749374E384B2260384F82050A601E603C78062025433D703D78344A05433D7011688026F3020B43324F324C13603878324E2178171C3578172D05D9304A32
:400100007078B178033E9642F6D12E4B2E4C2F4E1925186021600520356000F031FD2C482C4A01780520116000F060FE3C682A4B2A4D23402A483B60202610272F6080215B
:400140000660284F284D294E294A2A4B2A480C0614601C602F600660F8BDC04600300F4000400F40840F000004000140100001400C00014000000440080004400001044051
:40018000080104400803044008040440000404401804044000500F4004500F4010500F4018500F40100001002001054000700F4000010B40CCF1FF0FCDF1FF0FC9F1FF0F22
:4001C000BDF1FF0F1CFF0B4020FF0B402CFF0B40E5F1FF0F28FF0B40FFFFFBFF08020240200202401000008000000240AF04008008010B4004010B404000024010B5064CBD
:400200002378002B07D10548002802D0044800E000BF0121217010BDF000002000000000800F000008B5084B002B03D00748084900E000BF07480168002903D0064A002A54
:4002400000D0904708BDC04600000000800F0000F4000020D00000200000000010B562B600F084FC00280ED16524012000F0A8FD00F07CFC002806D1013CE4B2002CF4D1BB
:40028000034B40221A6000F063FC00F09BFAFEE7C000002008B500F0EDFA00F025FB00F08DFB08BD70B5054B0D1C161C0024C9B21C8000F077FB3580201C70BD0C010020E2
:4002C000F0B50A275F4387B002900591161C00252A4CBD4219DA00F0F5FA80B220802388002B0CD00220278800F06AFD00F0EAFA81B221802288BA42F4D8002706E0012095
:40030000013500F05DFDADB2E2E7052700253580208800282FD023883088019301994218059993B233808B4221D201982A1893B2049304998D4209D002994819039000F084
:40034000A7FA039A01351070ADB2F2E772B62088019A831A99B2218062B602984219013A1378172BD4D0052000F02AFDD0E7308000F0BAFA0527381C07B0F0BD0C0100204C
:4003800000B5FEE770B50F490F4A01394B1C14D0506895681468031C1E1AAE4202D040CC40C3F9E7D0681D1C5C1B844202D0002640C3F9E710320139E8E700F0A5FDFFF7B3
:4003C0004DFFFEE701000000D40F000008B500239A00032B02D80D48815800E00C490D4801338150302BF3D1FFF718FE0A490B4B086800221A60002800D108608022D305EE
:40040000186801210843186008BDC046000000008103000000000020C0000020C80000200047000038B5041C013806280BD800F061FD2406260F11080400174820E0174BF7
:4004400009E0174B07E0002000F0ACFC002302E0144B00E0144B5A78187800021043022C04D0032C07D0012C15D104E0040A0302234398B20FE000BA0DE00C4800E00C4858
:40048000C578817842780378180628430D02284311040843E3E738BDD87F0000C57F0000D47F0000D27F0000D67F0000C17F0000C97F000038B50220FFF7B4FF051C032097
:4004C000FFF7B0FF6C1CE1010C180220FFF7AAFF0023421CD201191CA24209D21078451EEDB2FD2D00D80121C318DBB20132F3E705485B420578DCB2AC4201D0062002E0E1
:400500000029FBD0002038BDC07F0000F0B5A34CA544FFF7BFFE62B600250095002603AF962124A849003A1CFF23FFF7C9FE0028F5D139880423062967D924AA1478012CCC
:4005400063D193236B4492221F786A4413783C021C4324AF3A19177953790197E71D9C4603238F4251D89179042317294DD1E3189BB2002B08D0BAAA8949D7187A18177881
:40058000013BC01980B2F3E762464042019F110282B239430823914237D168E0342900D09AE0012D00D0F6E0032C00D0F3E06FA80021802200F0D7FC80266FA988193519A8
:4005C0002639E21EFF39AEB200F0C4FC832E00D0DAE0BC797979009F26020E43002F0AD1391C802204A800F0BEFCFF2004A900F0EDFA01200090301C6FA900F0E7FA0125D4
:40060000002800D1C3E000260A23002168469130012703706A4624AC6B4692330E32277000200F1D197058701180BBB25C4FBAACE418E4192778013BC0199BB280B2002BD0
:40064000F4D14442A0B2BAAF564C7B181F19564C38701F19554C000A38701B19172707311F7089B224A89623FFF71CFE57E724AF79783B79081C31380A2801D90523C4E707
:4006800000F02EFC0611FC8C2FFC32428C507800012D00D07FE0002C7DD1FFF70BFF434243413B7163E0012D75D1012C73D1002B71D13F4A25A8146821889524CF090770EA
:4006C0003A0A97209627FF216C446F446844397022700370042199E7012D5CD1022C5AD96BE7012D57D119E7012D54D19620371943009F424DD86FAA901925A9221C00F0FC
:4007000029FCBEB2002380E7002C44D104AB294A191CA0CAA0C125AF21CB21C708210125231C73E7012D36D1032C34D196226A449521177869440C7838021A02204387180A
:40074000FF01002280210139CC5D1219D2B20029F9D1002B08D1FF2806D1174B174918780C78171A3A1BD2B2504224AB1871002301214BE7FFF79EFE002802D110488024E5
:40078000046000F011FB06E00125002601E0061CB8E7032339E7042337E7C04614FDFFFFA7FDFFFFACFDFFFFADFDFFFFAEFDFFFFD4000020A80F0000D07F0000D17F000081
:4007C000C0000020144810B50368002219680B1C013BBF2B03D01C781219D2B2F8E740680478A21AD3B2A34201D1002902D1002000F0D8FAFFF75EFE084C2168221C4029D8
:4008000001D0002803D000231360FFF77FFE8020206000F0C9FA10BDD4000020C000002008B50B4B10201A680A49024000D10A600B68802B0BD1002201200A60FFF7F2FD4E
:40084000002804D00120FFF7EDFDFFF7E9FD08BD00030B40C000002008B5054B802219681006084318600A2000F088FA08BDC0460000064010B5054C2378002B03D100F056
:40088000BFF801202070FFF7E7FF10BD10010020094B00B51968094B1A6891420AD019684A1C4039481E8141484205490240885C1A6000E0002000BDAC010020240100201A
:4008C00068010020064B074A1B68116800B58B4202D31268981A02E010684133181A00BDAC010020240100200C4A0D4B002130B5106811601D68802464022C431C601D68E3
:40090000084C2C401C60084B084C1D68084B25601970084D08492960106030BDC80F064004030640FFFFFEFF24010020AC010020A9010020C00F0640ED0F0000124910B5F0
:400940000A68531C3F3A541EA241544223400F4A1468A342FBD00C681268944208D10C4C0F2224682240082A02D00A4A10600AE0094C02222260094CC0B2E0540B60084BD0
:4009800019680A431A6010BD200100201C0100200802064040020640800F064028010020880F064038B5041C4518AC4204D02078FFF7C4FF0134F8E738BD00000B4A0023D3
:4009C000116810B513600A4B80201C684002204318601C68074820401860074B07481C68022399430460116010BDC046880F064004020640FFFFFEFF1C0100202001002095
:400A00001D4A1E4B1E4810B51E4900241A60046001221D4B1D480A601D490360072008601C491D4804600A601C4A0A2013601C4B1C6000F0ADF90A20032100F07FF9194974
:400A40000A2000F06FF918481849194A194B04600C60146018491C60184A194B04200860146018481C601849184A194B04600C7014601C6010BDC0460B000002000006408C
:400A8000400006404800064007000080000306400403064044000640100306400002064004020640010E0000880E0640C80E0640480F0640080F0640C80F0640880F064093
:400AC000AC01002024010020A9010020200100201C0100200E4B8422D00418601968802250020843186019680A481960C3239A00094B026000210948094A196009490A4BB2
:400B000010600A4A19600A4910601C20086070470001054024010540380105401027000014010540881300000C010540080105402801054008B500F02CF8044B01211A682E
:400B40000A431A6000F029F808BDC0460000054010B5054C2378002B03D1FFF7BBFF01202070FFF7E7FF10BD18010020024B18680106C80F7047C0460400044000000000EA
:400B80000230800804D0C0460138FDD1C046C0467047EFF3108072B6704780F310887047094A10B513680020141C1A0F11070A2A08D0002806D1F0221206914200D1181C93
:400BC0002368F2E710BDC04608000040F0B5071CABB00124FF2800D995E0002900D192E0002508ACB623D7207F2223706070A5700AA8E5706260802200F0ACF92E1C291CFC
:400C00002A1C0195B31C98002558002D02D05219294301960136202EF4D1002A02D1002968D100E0002100910291384D384E2C60384C34603268002AFCDB2B68FFF7B0FF37
:400C4000041E60D1FFF7A5FF334B05901968B6200491D8226946BFB2087603974A7668460C210A5A294F42832C49294A06A8386011601F1C3368002BFCDB2B68A020010649
:400C80008B4201D0002B2ED1009A002A2CD0002180220AA800F067F9019B029902331D4A08AC980001512C6032603468002CFCDB2B68FFF775FF041E16D107ABB6201870A3
:400CC000D92168460C225970115A10485980144A03600F4B1A6031680029FCDB2B68A0252E06B34200D01C1C049838600598FFF754FF08E0019E01250236B300E058009583
:400D00000290E25091E7201C2BB0F0BD08000040040000400400008008010B40050000800600008000B51F2800D901BE024A800083181868196000BD4000002038B5041C26
:400D40000D1E032D00D901BE1F2C00D901BEFFF720FFA308084A99008B1803221440944019680634A2409143A5400C1C2C431C60FFF713FF38BDC04600E400E01F23184038
:400D8000024A0121814011607047C04600E100E01F231840024A0121814011607047C04680E100E001BE7047034B04491A6890B2084318607047C0460CED00E00400FA05AC
:400DC00010B5041C8022074B1002844205D91868FFF7D6FE04496418F4E758686043FFF7CFFE10BDDC0000200080FFFF08B5034B197A4843FFF7C4FE08BDC046DC00002061
:400E0000264B10B51868002800D0804724490A6852071DD5234C23681A0716D0224B234A186811684B1C40394C1EA1414C42204923400C68A34203D11E4B20221A70E9E787
:400E40001D49C0B2C8541360E4E71C49042008601B4A1468A20720D51A4B0F2118680140082917D0184A194B1468186884420CD01C68621C3F3C601E8441614214480A40F5
:400E8000845C14490C601A60E6E7134C022122688A432260114B0220186010BD14010020CC0F06400803064040030640AC01002024010020A901002068010020C00F06407A
:400EC0008C0F064008020640200100201C0100202801002040020640880F0640800F064002B4714649084900095649008E4402BC7047C04602B4714649084900095C49000F
:400F00008E4402BC7047C04670B50E4B0E4D0024E81A85101E1CAC4204D0A100725890470134F8E700F044F80849094A0E1C541AA5100024AC4204D0A300F0588047013494
:400F4000F8E770BDBC0F0000BC0F0000BC0F0000C40F000010B50023934203D0CC5CC4540133F9E710BD00B58218031C934202D019700133FAE700BD08100000B100000047
:400F80000000000001330F4003410F4004430F4002600F40E61062048E04D84018808C40C608E608020111019311C80411140101F8B5C046F8BC08BC9E4670472502000015
:400FC000CD030000F8B5C046F8BC08BC9E467047FD010000E80F0000D000002020000000C00000000000000000000000780F00007C0F00000000E02EC05D00001800000041
:4010000000366E010000000000000000000000000000000000000000000000000000000000000000000000000000000000000000000000000000000000000000000000000B
:401040000000000000000000000000000000000000000000000000000000000000000000000000000000000000000000000000000000000000000000000000000000000070
:401080000010002091100000511400005114000080B500AF024B83F3088800F0DDF9C0460010002080B584B000AF021CFB1D1A70224A3B1C0B3312781A70214A3B1C0A3376
:4010C00012781A701F4B1B68013BFB601AE01E4B1868391C0B31FA68131C5B009B18C31801331B780B70184B1868391C0A31FA68131C5B009B18C31802331B780B70FB6895
:40110000013BFB60FB68002B0ADB0F4B1968FA68131C5B009B185B5CFA1D12789A42D6D90A4B3A1C0B3212781A60094B3A1C0A3212781A60BD4604B080BDC046CCF1FF0FAD
:40114000CDF1FF0F90200000D40000201CFF0B4020FF0B4080B500AF164B164A12688021C9020A431A600320FFF79CFF124B03221A60052000F050FA104B114A1278D2B20A
:401180001A60052000F07CFA0A4B0A4A11680D4A0A401A600C4B10221A600C4B802212061A600B4B802212061A600A4B0A4A1A60BD4680BD00010B402CFF0B4028FF0B403E
:4011C000D0F1FF0FFFFFFBFF2002024008010B4004010B40000002400200008080B582B000AF72B6FB1D00221A7023E0FB1D1A78131C5B009B185B002E4A9B183B603B68AC
:401200001A78597809020A43997809040A43DB781B0613431A1C3B6819795B791B020B439BB2101C191C00F0A3F9FB1DFA1D127801321A70FB1D1B78012BD7D91E4A1F4B0B
:40124000101C191C00F0A4F91D4BEE2212021A601C4B1D4A1A601D4B1D4A1A601D4B1E4A1A601E4B1E4A1A601E4B802292031A601D4B992212041A601C4B992212041A60D5
:401280001B4B1C4A1A601C4B1B4A1278D2B202210A43D2B21A70184B174A1278D2B206210A43D2B21A70FFF755FF00F0B1F9BD4602B080BD702000007C2000008420000096
:4012C0000C00014008010440C600180008020440B66DDB0008030440800D1B0010500F400400990014500F4020500F4030500F40200105401BBB0B0000700F4010B5064C89
:401300002378002B07D10548002802D0044800E000BF0121217010BDE8000020000000004820000008B5084B002B03D00748084900E000BF07480168002903D0064A002A72
:4013400000D0904708BDC0460000000048200000EC000020D00000200000000080B500AF022000F035FD00F00DFD031C9AB2084B1A80074B1B881BB2181C3A2100F0D2FD0D
:40138000031C9BB21AB2034B1A60BD4680BDC046040100200801002080B500AF00F0E0FC62B6264B181C00F0DDFB012000F07CF9002000F059FC012000F07CFC00F0E2F925
:4013C0000C2000F07BFAFA235B00181C00F034F9012000F009FD012000F020FC0A2000F04FF9002000F000FD002000F017FC012000F064FA0020002100F0D6F9104B181CBF
:4014000000F00CFA0120002100F0CEF90D4B181C00F004FA01200A2100F0C6F90A4B1B689BB2181C00F042FB01200E2100F0BCF9064B181C00F0F2F9C5E7C0465D1300004B
:401440004C20000060200000080100206C20000080B500AFFEE7C04680B586B000AF254B7B61254B3B61234B7B61234B3B6132E03B691B68FB603B695B68BB603B699B6879
:401480003B6000237B600CE0FB681A68BB681A60BB680433BB60FB680433FB607B6804337B607A683B689A42EED13B69DB683B6000237B6008E0BB6800221A60BB68043325
:4014C000BB607B6804337B607A683B689A42F2D13B6910333B617B695A1E9341DBB27A69013A7A61002BC3D100F07EFDFFF754FFFEE7C04601000000F820000080B582B0A1
:4015000000AF00237B600FE07B68032B04D8134B7A689200D35800E0114B124A796889008B507B6801337B607B682F2BECD9FFF755FE0D4B00221A600C4B1B68002B02D13F
:401540000A4B00221A608023DB058022D205126801210A431A60BD4602B080BD801000005114000000000020C8000020C000002080B582B000AF786039607A683B68101C14
:4015800000211A1C00F056FDBD4602B080BDC04680B586B000AF7860396000233B6100237B612EE07B699B007A68D3181B68BB603B1C0F33BA681A70BB68FF229343BB60DE
:4015C00017E03B695B003A68D3181B781A1CBB68D3183A69520039688A1852781A703B6901333B613B1C0F333A1C0F321278013A1A703B1C0F331B78002BE2D17B690133F0
:401600007B617B69012BCDD9BD4606B080BDC04680B500AFBD4680BD0230800804D0C0460138FDD1C046C0467047EFF3108072B6704780F31088704780B582B000AF786099
:4016400008E00C4B1B68181CFFF7E6FF7B680A4A9B187B607A6880231B029A42F1D8074B1B687A685343181CFFF7D6FFBD4602B080BDC046E40000200080FFFFDC000020CB
:4016800080B582B000AF021CBB1D1A80BB1D1B88044A12785343181CFFF7BEFFBD4602B080BDC046E000002080B584B000AF021CFB1D1A700D4B1B68DAB23B1C0F330121C2
:4016C0008A431A70FB1D1A7801231340D9B23B1C0F333A1C0F3212780A431A70034B3A1C0F3212781A60BD4604B080BD0002044080B500AF2820FFF79FFF032000F0AAF9BD
:401700000520FFF799FF032000F0A4F90F20FFF793FF032000F09EF90120FFF78DFF022000F098F90520FFF787FF062000F0C6F80E2000F0C3F82C2000F0C0F8082000F045
:40174000BDF8012000F0BAF80C2000F0B7F8032000F0B4F80520FFF76FFF034B181C00F067FBBD4680BDC0469420000080B500AF0C2000F0A3F8024B01221A70BD4680BD3B
:401780000C01002080B500AF064B1B78002B04D1FFF7AEFF034B01221A70FFF7E7FFBD4680BDC0460D01002080B582B000AF0A1CFB1D011C1970BB1D1A70FB1D1B78012B13
:4017C00010D002DC002B05D024E0022B12D0032B18D01FE0BB1D1B78803BDBB2181C00F06DF818E0BB1D1B78403BDBB2181C00F065F810E0BB1D1B786C3BDBB2181C00F028
:401800005DF808E0BB1D1B782C3BDBB2181C00F055F800E0C046BD4602B080BD80B584B000AF78603B1C0F3301221A703B1C0E337A6812781A7015E03B1C0E331B78181CAB
:4018400000F018F83B1C0F331B787A68D2183B1C0E3312781A703B1C0F333A1C0F32127801321A703B1C0E331B78002BE4D1BD4604B080BD80B584B000AF021CFB1D1A7076
:4018800000F040F83B1C0F33FA1D127812091A703B1C0F331B78181C00F0A6F83B1C0F33FA1D11780F220A401A703B1C0F331B78181C00F099F8BD4604B080BD80B584B0B7
:4018C00000AF021CFB1D1A7000F01CF83B1C0F33FA1D127812091A703B1C0F331B78181C00F0B8F83B1C0F33FA1D11780F220A401A703B1C0F331B78181C00F0ABF8BD4662
:4019000004B080BD80B582B000AF314B304A1268FE218A431A602F4B1A682F4B13407B602C4B7A682D490A431A60294B284A126840218A431A60264B254A126880210A4340
:401940001A600020FFF79CFE214B214A126820210A431A600120FFF793FE214B1B687B601B4B1B4A126820218A431A600020FFF787FE7A68102313407B60154B144A12688F
:4019800020210A431A600120FFF77AFE104B104A126820218A431A607B68002BD1D10C4B0B4A126880218A431A60094B084A1268FE218A431A60074B1A68074B13407B6041
:4019C000044B7A6807490A431A60BD4602B080BD00020440080204400780FFFF4812000004020440B06D000080B582B000AF021CFB1D1A70164B164A126840210A431A609A
:401A0000134B134A126880218A431A600020FFF737FE0F4B0E4A12681E218A431A600C4B0B4A1168FA1D12785200D2B220200243D2B20A431A600120FFF722FE044B044A4C
:401A4000126820218A431A60BD4602B080BDC0460002044080B582B000AF021CFB1D1A70114B114A1268C0218A431A600E4B0E4A12681E218A431A600B4B0B4A1168FA1D0B
:401A800012785200D2B220200243D2B20A431A600120FFF7F5FD044B034A126820218A431A60BD4602B080BD0002044080B586B000AF78603B1C17330A221A703B1C17332D
:401AC0001B783A1C08320021D1543B1C17333A1C17321278013A1A7021E07B68181C0A2100F016FA0B1CDAB23B1C163330321A703B1C17331B783A1C0832391C163109788B
:401B0000D1547B68181C0A2100F0BEF9031C7B603B1C17333A1C17321278013A1A707B68092BDAD87B68181C0A2100F0F1F90B1CDAB23B1C163330321A703B1C17331B78B6
:401B40003A1C0832391C16310978D1543B1C17331B783A1C0832D318181CFFF75FFEBD4606B080BD80B582B000AF786000F04CF87B68181C00F008F8032000F013F800F030
:401B800039F8BD4602B080BD80B582B000AF7860034A80237968D150BD4602B080BDC0460000002090B585B000AF021CFB1D1A700623FB603C1C0B34FFF737FD031C23702A
:401BC0000B4B0B4A1268C021101C8843011CFA1D1078FA68041C9440221C0A431A603B1C0B331B78181CFFF724FDBD4605B090BD10E400E080B500AF024B802252021A60E4
:401C0000BD4680BD00E100E080B500AF024B802252021A60BD4680BD80E100E080B584B000AF021CFB1D1A700E4B1B68DAB23B1C0F3340218A431A70FB1D1B789B01DAB21D
:401C400040231340D9B23B1C0F333A1C0F3212780A431A70034B3A1C0F3212781A60BD4604B080BD0001044080B584B000AF021CFB1D1A700E4B1B68DAB23B1C0F33402136
:401C80008A431A70FB1D1B789B01DAB240231340D9B23B1C0F333A1C0F3212780A431A70034B3A1C0F3212781A60BD4604B080BD0003044080B584B000AF021CFB1D1A702C
:401CC0000E4B1B68DAB23B1C0F3320218A431A70FB1D1B785B01DAB220231340D9B23B1C0F333A1C0F3212780A431A70034B3A1C0F3212781A60BD4604B080BD00030440E2
:401D000080B500AF074B812292041A60064B4D221A60022000F050F8044B181C00F03EF8BD4680BD0001054024010540FFFF000090B583B000AFFC1DFFF777FC031C237034
:401D4000064B064A126801210A431A60FB1D1B78181CFFF76EFCBD4603B090BD0000054080B500AF064B1B78002B04D1FFF7C8FF034B01221A70FFF7DBFFBD4680BDC04642
:401D80000E01002080B500AF034B1B681B041B0C181CBD4680BDC0460801054080B582B000AF7860034B7A681204120C1A60BD4602B080BD1401054080B582B000AF78602B
:401DC000024B7A681A60BD4602B080BD3801054080B582B000AF7860024B7A681A60BD4602B080BD3001054080B584B000AF021CFB1D1A700D4B1B68DAB23B1C0F330121D1
:401E00008A431A70FB1D1A7801231340D9B23B1C0F333A1C0F3212780A431A70034B3A1C0F3212781A60BD4604B080BD0001044080B584B000AF7860FFF764FD4020FFF74F
:401E40003DFD3B1C0F3300221A700FE03B1C0F331B787A68D3181B78181CFFF70BFD3B1C0F333A1C0F32127801321A703B1C0F331B783F2BEAD9FFF745FD8020FFF71EFD7D
:401E8000BD4604B080BDC046002934D00123002210B488422CD301242407A14204D2814202D209011B01F8E7E400A14204D2814202D249005B00F8E7884201D3401A1A4377
:401EC0004C08A04202D3001B5C0822438C08A04202D3001B9C082243CC08A04202D3001BDC082243002803D01B0901D00909E3E7101C10BC7047002801D00020C04307B443
:401F0000024802A14018029003BDC046D90000000029F0D003B5FFF7B9FF0EBC4243891A1847C046002941D010B4041C4C40A44601230022002900D54942002800D54042A3
:401F400088422CD301242407A14204D2814202D209011B01F8E7E400A14204D2814202D249005B00F8E7884201D3401A1A434C08A04202D3001B5C0822438C08A04202D3AD
:401F8000001B9C082243CC08A04202D3001BDC082243002803D01B0901D00909E3E7101C6446002C00D5404210BC7047002806D003DB0020C043400801E08020000607B4DD
:401FC000024802A14018029003BDC046190000000029EBD003B5FFF7A7FF0EBC4243891A1847C0467047C04670B50E4B0E4D0024E81A85101E1CAC4204D0A100725890470D
:402000000134F8E700F066F80849094A0E1C541AA5100024AC4204D0A300F05880470134F8E770BDE0200000E0200000E0200000E820000000B58218031C934202D01970CE
:402040000133FAE700BD00000000000050536F4320536F6E696352414E4745520000000044697374616E63653A200000636D000000300F40000400400F40000404410F405F
:4020800002600F4002044604C040D02002011101040000000000000000000000101010101010101018181818181818181C1C1C1C1C1C1C1C1E1E1E1E1E1E1E1E1F1F1F1F8A
:4020C0001F1F1F1F00000000000000000000000000000000F8B5C046F8BC08BC9E46704725130000FD140000F8B5C046F8BC08BC9E467047FD12000008210000D000002067
:40210000180000002800000000000000C0F1FF0FC0C62D00B80B0000030000000000DC05000000000000000000000000000000000000000000000000000000000000000046
:40214000000000000000000000000000000000000000000000000000000000000000000000000000000000000000000000000000000000000000000000000000000000005F
:40218000000000000000000000000000000000000000000000000000000000000000000000000000000000000000000000000000000000000000000000000000000000001F
:4021C00000000000000000000000000000000000000000000000000000000000000000000000000000000000000000000000000000000000000000000000000000000000DF
:40220000000000000000000000000000000000000000000000000000000000000000000000000000000000000000000000000000000000000000000000000000000000009E
:407FC0009691100000200000000011000000000000000100000000000000000000000000000000000000000000000000000000000000000000000000000000000000000018
:0200000490303A
:020000008B91E2
:0200000490402A
:20000000FFFFFFFF00000000000000000000000000000000000000000000000000000000E4
:0200000490501A
:0C000000000204C81193110004D29D24DA
:0200000490600A
:0100000001FE
:00000001FF